:020000021000EC
:10B0000000400020ADB80100EDB80100EFB801002C
:10B010000000000000000000000000000000000030
:10B02000000000000000000000000000F1B8010076
:10B030000000000000000000F3B80100F5B80100B6
:10B04000F7B80100F7B80100F7B80100F7B8010040
:10B05000F7B8010000000000F7B80100F7B80100E0
:10B06000F7B80100F7B80100F7B80100F7B8010020
:10B07000F7B80100F7B80100F7B80100F7B8010010
:10B08000F7B80100F7B80100F7B80100F7B8010000
:10B09000F7B80100F7B80100F7B80100F7B80100F0
:10B0A000F7B80100F7B80100000000000000000040
:10B0B0000000000000000000000000000000000090
:10B0C00010B5064C2378002B07D1054B002B02D07E
:10B0D000044800E000BF0123237010BDCC240020F1
:10B0E0000000000050BE0100044B10B5002B03D03F
:10B0F0000349044800E000BF10BDC0460000000046
:10B10000D024002050BE0100144B002B00D1124B64
:10B110009D46402292029A1A924600218B460F4683
:10B120001148124A121A00F05FFD0D4B002B00D09F
:10B1300098470C4B002B00D09847002000210400BA
:10B140000D000B4800F002FD00F02CFD200029004E
:10B1500000F010F800F002FD0000080000400020A0
:10B160000000000000000000CC2400200C2500207E
:10B170007DBB010080B582B000AF00F061F800F047
:10B180002FF800237B6000F04FF800F0DDF903009A
:10B190007B607A680F4B1100180000F05EF900F038
:10B1A00003FA03007B607A680B4B1100180000F073
:10B1B00054F900F02BFA03007B607A68074B11000A
:10B1C000180000F04AF900F0CBFA00231800BD4641
:10B1D00002B080BD08BE010014BE010020BE010007
:10B1E00080B582B000AF04237B6013E001227B684E
:10B1F0009A401100A023DA05A323DB00D1500122DD
:10B200007B689A40A023DB051100064A99507B68B1
:10B2100001337B607B680F2BE8DDC046C046BD462E
:10B2200002B080BD0C05000080B500AFA023DA0598
:10B23000A123DB00E0210902D150C046BD4680BDFC
:10B2400080B500AFA023DA05EC23DB000121D1504B
:10B25000A023DB05124A002199501249A123DB00EB
:10B2600001225242CA500F49A223DB00012252425E
:10B27000CA500C4A0C4B1821D1500A4A0B4B1921C9
:10B28000D150084A0A4B0B49D150064AA023DB0093
:10B290000421D150034B01221A60C046BD4680BD37
:10B2A00064070000002000400C05000014050000A9
:10B2B000240500000050270080B582B000AF0200D6
:10B2C000FB1D1A700D4B01229A600C49FB1D1B7867
:10B2D0000B4A8B50C046094A8E235B00D358002B83
:10B2E000F9D0064A8E235B000021D150034B012286
:10B2F000DA60C046BD4602B080BDC04600200040B6
:10B300001C05000080B586B000AF78607B68002B1C
:10B3100003D13020FFF7D0FF59E000237B610023E9
:10B320003B610023FB607B68002B1FDA0123FB607D
:10B330007B685B427B6019E03A6913009B009B18B5
:10B340005B003B617B680A21180000F0F3FB0B00F7
:10B350001A003B699B183B617B680A21180000F0CA
:10B360009FFB03007B607B6901337B617B68002B63
:10B37000E2D1FB68002B1DD02D20FFF79DFF19E0C7
:10B380003B690A21180000F0D5FB0B00DAB20B2153
:10B390007B1830321A707B181B781800FFF78CFF6F
:10B3A0003B690A21180000F07BFB03003B617B69CD
:10B3B000013B7B613B69002BE2D105E03020FFF7C8
:10B3C0007BFF7B69013B7B617B69002BF6D1BD462E
:10B3D00006B080BD80B584B000AF78600023FB600C
:10B3E0000EE0FA6813009B009B185B00FB607B6813
:10B3F0001B78303BFA68D318FB607B6801337B60B5
:10B400007B681B78642BECD1FB681800BD4604B048
:10B4100080BD80B584B000AF78607B68002B01D11F
:10B42000012316E00023FB607B68002B0DDAFB682C
:10B430000133FB6009E0FB680133FB607B680A2194
:10B44000180000F02DFB03007B607B68002BF2D11D
:10B45000FB681800BD4604B080BD0FB480B586B04F
:10B4600000AF2423FB187B603B6A3B6137E03B69FC
:10B470001B78252B05D03B691B781800FFF71CFFB4
:10B480002AE07B681A1D7A601B68FB603B69013308
:10B490003B613B691800FFF79DFF0300BB60FB6841
:10B4A0001800FFF7B6FF03007B6102E03B69013340
:10B4B0003B613B691B78642BF8D105E02020FFF746
:10B4C000FBFE7B6901337B617A69BB689A42F5DBDD
:10B4D000FB681800FFF716FF3B6901333B613B69CE
:10B4E0001B78002BC3D1C046C046BD4606B080BC09
:10B4F00008BC04B0184710DF7047C046180072DF60
:10B500007047C046180073DF7047C0461800A0DFC0
:10B510007047C0461800A2DF7047C0461800A6DF7B
:10B520007047C0461800A9DF7047C046180060DFAA
:10B530007047C046180061DF7047C046180063DFDF
:10B540007047C0461800000080B582B000AF0023ED
:10B550007B6000210020FFF7CEFF03007B607B684B
:10B56000002B01D07B6816E00D4B1422002118003F
:10B5700000F03AFB0B4B3B60094B01221A72084B5F
:10B5800001221A803A00064B11001800FFF7CFFF86
:10B5900003007B607B681800BD4602B080BDC046DA
:10B5A000F82400207820002080B588B000AF002368
:10B5B000FB611B217B180B221A707B18197812482B
:10B5C00000230022FFF79BFF0300FB61FB69002BB8
:10B5D00001D0FB6913E03B0018220021180000F0A5
:10B5E00003FB3B0000221A703B00962252001A8295
:10B5F0003B001800FFF787FF0300FB61FB691800A1
:10B60000BD4608B080BDC04678200020F0B595B09A
:10B6100000AF0023FB643C243B19494A23CA23C3DF
:10B6200012681A6038257B19464A1A807B199A1CC1
:10B630003B1911001800FFF782FF0300FB64424A28
:10B640007B1919000120FFF762FF0300FB64342619
:10B65000BB193E4A1A80BB199A1C3B1911001800ED
:10B66000FFF76DFF0300FB6418243B191C22002127
:10B67000180000F0B9FA3B191A7802210A431A702F
:10B680003B191A7808210A431A703B19304A5A604C
:10B690003B1911221A813B1911225A8114257B1959
:10B6A00003220021180000F09FFA7B191A780F215D
:10B6B0000A40111C10220A431A707B191A780F21B4
:10B6C0008A43111C01220A431A707B195A780F21F0
:10B6D0000A40111C10220A435A707B195A780F2114
:10B6E0008A43111C01220A435A707B199A78062159
:10B6F0008A43111C04220A439A703B001422002141
:10B70000180000F071FA3B00BA191A603B007A1970
:10B710005A603B0004221A813B0004229A813B00BC
:10B720000C4A1A610C4B58880C4B3A003919FFF738
:10B73000F2FE0300FB64FB6C1800BD4615B0F0BDC3
:10B740002CBE0100BEBAFFFFEE2400200BB0FFFFAD
:10B7500084200020E8240020EC240020F024002095
:10B7600090B5A3B000AF1823FB1800221A60043371
:10B7700060220021180000F037FA1623FB1864221B
:10B780001A802AE01823FB188022B9180B607E214A
:10B790007B18BA18126812881A807B181B88102B25
:10B7A00002D0112B0ED014E08023FB181B689A885E
:10B7B0003A4B1A80394B1888002300220021FFF7EA
:10B7C000B2FE06E0354B012252421A80FFF7ECFE32
:10B7D000C0461623FB1864221A8016243A1918232F
:10B7E000FB1811001800FFF7A6FE0300052BC9D1B6
:10B7F0003B1964221A80294B1B88294A93421DD089
:10B8000014243B1902221A803B1D1022002118002B
:10B8100000F0EAF9214B9A883B1D1A803B1D01225A
:10B820009A703B1D3A199A603B1D1E4ADA601B4B09
:10B830001B883A1D11001800FFF771FE00238421B8
:10B840007A181360174B1B781A007B181B68134378
:10B850007A181360134B5B781B021A007B181B6865
:10B8600013437A1813600F4B9B781B041A007B1844
:10B870001B6813437A1813600A4BDB781B061A0007
:10B880007B181B6813437A1813607B181A68064BE1
:10B8900011001800FFF7E1FD73E7C046EC2400201B
:10B8A000FFFF0000E82400203CBE010003210A48FD
:10B8B00002680A430260094802680A4302600849B4
:10B8C000084A094B9B1A03DD043BC858D050FBDCE7
:10B8D00000F012F8FFF718FC240500405405004062
:10B8E0005CBE010078200020CC240020FEE7FEE7AB
:10B8F000FEE7FEE7FEE7FEE780B500AF00F036F8B2
:10B90000031E06D0134B144A1A60144B80221202F5
:10B910001A6000F06BF8031E05D08023DA05C123FE
:10B92000DB000121D15000F087F8031E0ED00C4B34
:10B930001B68012B07D00A4B0A4A1A60C046084B05
:10B940001B68012BFBD1084BC0221A60C046BD46C4
:10B9500080BDC04604050040DFFF07C0186C0040F2
:10B9600000EC06407593000014EC064080B500AF73
:10B970001A4B1B68FF221340012B2AD1184B1B685E
:10B980000F22134025D1174B1B68F022134006D11C
:10B99000154B1B68F022134001D101231AE0114B13
:10B9A0001B68F0221340102B06D10F4B1B68F022AE
:10B9B000134001D101230DE00A4B1B68F022134014
:10B9C000302B06D1084B1B68F022134001D1012314
:10B9D00000E000231800BD4680BDC046E00F00F027
:10B9E000E40F00F0E80F00F0EC0F00F080B500AFBE
:10B9F0000D4B1B68FF221340012B11D10B4B1B6811
:10BA00000F2213400CD10A4B1B68F0221340402B2D
:10BA100006D1084B1B68F022134001D1012300E03E
:10BA200000231800BD4680BDE00F00F0E40F00F0D9
:10BA3000E80F00F0EC0F00F080B500AF144B1B686E
:10BA4000FF221340012B1ED1124B1B680F22134003
:10BA500019D1114B1B68F0221340A02B06D10F4BBC
:10BA60001B68F022134001D101230DE00A4B1B6833
:10BA7000F0221340D02B06D1084B1B68F022134054
:10BA800001D1012300E000231800BD4680BDC0465F
:10BA9000E00F00F0E40F00F0E80F00F0EC0F00F012
:10BAA000002941D010B4041C4C40A44601230022BC
:10BAB000002900D54942002800D5404288422CD3B5
:10BAC00001242407A14204D2814202D209011B01B0
:10BAD000F8E7E400A14204D2814202D249005B00AF
:10BAE000F8E7884201D3401A1A434C08A04202D317
:10BAF000001B5C0822438C08A04202D3001B9C0858
:10BB00002243CC08A04202D3001BDC0822430028B9
:10BB100003D01B0901D00909E3E7101C6446002C7F
:10BB200000D5404210BC704701B5002000F00CF871
:10BB300002BDC0460029F7D003B5FFF7B3FF0EBC26
:10BB40004243891A1847C0467047C04610B50100E5
:10BB500000230022002000F09BF810BD10B500214A
:10BB6000040000F0E5F8044B1868C36B002B00D00C
:10BB70009847200000F03AF94CBE010070B5074D1F
:10BB8000074C641BA41005D0013CA300EB58984758
:10BB9000002CF9D100F032F970BDC046C824002055
:10BBA000CC24002070B50C4D0C4E761BB61005D081
:10BBB000002408CD01349847A642FAD100F018F9C4
:10BBC000074D084E761BB61005D0002408CD013471
:10BBD0009847A642FAD170BDC0240020C02400209E
:10BBE000C0240020C8240020F0B5050083074AD0F7
:10BBF000541E002A44D0CEB20300032202E00135D5
:10BC0000013C3DD301332E701342F8D1032C2FD9C0
:10BC1000FF220A40150215432A0415430F2C35D97B
:10BC20002700103F3F093E01B4461E001A0010369F
:10BC30006644156055609560D5601032B242F8D107
:10BC40000F260C2201373F012640DB193700224224
:10BC500017D03E1FB608B400A4461A001C1D644449
:10BC600020C2A242FCD103240136B6009B193C40FD
:10BC7000002C05D0C9B21C19197001339C42FBD1AC
:10BC8000F0BD3400F4E714000300BFE72700E0E74D
:10BC9000F0B5C64600B51F4C82B024680194A424B8
:10BCA000019D64002D59002D2BD06C681F2C2EDCBB
:10BCB000002809D10020631C0234A4006B6061518C
:10BCC00002B004BC9046F0BD8827A600AE19F25120
:10BCD0000137FF37BC460122AC446746A2403F68AB
:10BCE000904617436246176084277F00F35102286D
:10BCF000E0D12B0040468D33FF331A6810431860A3
:10BD0000D8E7019D019E4D35FF353551CDE7012026
:10BD10004042D5E74CBE0100034B10B5002B02D0CA
:10BD20000248FFF713FF10BD000000007DBB0100BB
:10BD3000F0B55746DE464E4645462B4BE0B51B68F0
:10BD40000F009A4683B00190A42352465B00D65858
:10BD5000002E32D07468651E2FD4C4225200914642
:10BD60000134A4003419B144984602E0043C013D7A
:10BD700023D3002F04D080235B00E358BB42F5D1CE
:10BD800073682268013BAB4229D000232360002A5C
:10BD9000ECD0736849469B460123AB4009681942C1
:10BDA00012D1904773685B45CED1534642469B58AB
:10BDB000B342C9D1043C013DDBD203B03CBC904648
:10BDC0009946A246AB46F0BD300080218D30FF3051
:10BDD00000686158184204D101989047E2E7756005
:10BDE000D5E708009047DDE74CBE0100FEE7C046FE
:10BDF000F8B5C046F8BC08BC9E467047F8B5C046CA
:10BE0000F8BC08BC9E467047496E69743A202564A8
:10BE10000A0D00004741503A2025640A0D00000039
:10BE2000474154543A2025640A0D0000465899A60B
:10BE3000437F79B4CF4B1A2EAF10FFD86C65645F87
:10BE4000706F7765723A25640A0D00009820002013
:04BE500000000000EE
:08BE5400B4F2FF7F01000000C1
:10BE5C000A09506C616E74656C797300506C616E7C
:10BE6C0074206C6967687420706F776572000000CD
:10BE7C000000000084230020EC2300205424002028
:10BE8C0000000000000000000000000000000000A6
:10BE9C000000000000000000000000000000000096
:10BEAC000000000000000000000000000000000086
:10BEBC000000000000000000000000000000000076
:10BECC000000000000000000000000000000000066
:10BEDC000000000000000000000000000000000056
:10BEEC000000000000000000000000000000000046
:10BEFC000000000000000000000000000000000036
:10BF0C000000000000000000000000000000000025
:10BF1C000000000000000000010000000000000014
:10BF2C000E33CDAB34126DE6ECDE05000B000000D9
:10BF3C0000000000000000000000000000000000F5
:10BF4C0000000000000000000000000000000000E5
:10BF5C0000000000000000000000000000000000D5
:10BF6C0000000000000000000000000000000000C5
:10C29C00000000000000000019BD0100E9B0010021
:04C2AC00C1B001001C
:040000031000B8AD84
:00000001FF
